:020000040000FA
:040000000DEF00F010
:04000800FBEF10F00A
:06001800FF00F1EF12F001
:1015000000434D503120496E7465727275707421BC
:05151000200D0A00009F
:101516001F50800B286E1F501F242E6E1EAE96EF96
:101526000AF098EF0AF099EF0AF02E802E50D8B400
:101536009FEF0AF0A1EF0AF0B4EF0AF02E28D8A424
:10154600A7EF0AF0A9EF0AF0B1EF0AF0000E1C6E41
:10155600000E1D6E000E1E6E000E1F6E1E8EBCEF60
:101566000AF0000E1C6E000E1D6E000E1E6E000EA2
:101576001F6E2350800B281A235023242D6E22AE73
:10158600C7EF0AF0C9EF0AF0CAEF0AF02D802D5016
:10159600D8B4D0EF0AF0D2EF0AF0E5EF0AF02D2822
:1015A600D8A4D8EF0AF0DAEF0AF0E2EF0AF0000E5C
:1015B600206E000E216E000E226E000E236E228E0D
:1015C600EDEF0AF0000E206E000E216E000E226E68
:1015D600000E236E2D50D8B4F3EF0AF0F5EF0AF0A3
:1015E600FDEF0AF02E50D8A4FBEF0AF0FDEF0AF04B
:1015F60007EF0BF0000E1C6E000E1D6E000E1E6E29
:10160600000E1F6EB1EF0CF022501C026100CCF3ED
:1016160033F56100D0F334F53350296E2A6A2B6A0C
:101626002C6A34502F6E306A316A326A21501D029C
:101636006100CCF333F56100D0F334F5335029263D
:10164600000E2A222B222C2234502F26000E302266
:101656003122322220501E026100CCF333F56100A4
:10166600D0F334F533502926000E2A222B222C22C1
:1016760034502F26000E3022312232222BC52CF573
:101686002AC52BF529C52AF5296A20501D026100B5
:10169600CCF333F56100D0F334F5335029263450BA
:1016A6002A22000E2B22000E2C2221501C02610041
:1016B600CCF333F56100D0F334F53350292634509A
:1016C6002A22000E2B22000E2C222BC52CF52AC511
:1016D6002BF529C52AF5296A20501C026100CCF396
:1016E60033F56100D0F334F53350292634502A22DD
:1016F600000E2B22000E2C2222501D026100CCF37C
:1017060033F56100D0F334F533502F2634503022B0
:10171600000E3122000E322221501E026100CCF34F
:1017260033F56100D0F334F533502F263450302290
:10173600000E3122000E322222501E026100CCF32E
:1017460033F56100D0F334F53350246E3450256EF2
:10175600266A276A26C527F525C526F524C525F553
:10176600246A24502F262550302226503122275015
:10177600322229C524F52AC525F52BC526F52CC503
:1017860027F5190ECCEF0BF0D890273226322532EA
:101796002432E82EC7EF0BF024502F262550302296
:1017A60026503122275032222BC52CF52AC52BF57F
:1017B60029C52AF5296A2D502EC524F5256A242621
:1017C600000E2522820E2424336EFF0E2520346E51
:1017D60002EF0CF0D8902F363036313632362CAE3A
:1017E600F7EF0BF0F9EF0BF0FAEF0BF02F80D89034
:1017F60029362A362B362C363306D8A0340631AE97
:1018060007EF0CF009EF0CF0EDEF0BF0000E2D6E6C
:101816002CAE10EF0CF012EF0CF036EF0CF0FF0EC2
:101826002914246EFF0E2A14256EFF0E2B14266E25
:101836007F0E2C14276E2450251026102710D8B49E
:1018460027EF0CF029EF0CF02DEF0CF0010E2D6EAA
:1018560036EF0CF02FA032EF0CF034EF0CF036EF31
:101866000CF029EF0CF02D50D8B43CEF0CF03EEF05
:101876000CF062EF0CF0010E2F26000E3022312202
:10188600322232A049EF0CF04BEF0CF062EF0CF075
:101896002FC524F530C525F531C526F532C527F502
:1018A6002734273226322532243224C52FF525C582
:1018B60030F526C531F527C532F5334A342A34BE0C
:1018C6006DEF0CF0345008E13328D8A06DEF0CF022
:1018D6006FEF0CF079EF0CF0000E2F6E000E306EED
:1018E600800E316E7F0E326EA7EF0CF034BE86EF9F
:1018F6000CF0345006E13304D8B084EF0CF086EFD8
:101906000CF092EF0CF0000E2F6E000E306E000EF3
:10191600316E000E326E000E286EA7EF0CF033C546
:101926002EF5FF0E2F16FF0E30167F0E3116000E07
:1019360032162EA0A1EF0CF0A3EF0CF0A4EF0CF0E2
:10194600318ED8902E30326E285032122FC51CF5AB
:1019560030C51DF531C51EF532C51FF512000650FE
:10196600800B136E065006241A6E05AEBDEF0CF002
:10197600BFEF0CF0C0EF0CF01A801A50D8B4C6EFC7
:101986000CF0C8EF0CF0DDEF0CF01A28D8A4CEEF5F
:101996000CF0D0EF0CF0D8EF0CF0000E036E000E3A
:1019A600046E000E056E000E066E058E000E066EA7
:1019B600E5EF0CF0000E036E000E046E000E056ED1
:1019C600000E066E0A50800B131A0A500A241B6E6C
:1019D60009AEF0EF0CF0F2EF0CF0F3EF0CF01B8019
:1019E6001B50D8B4F9EF0CF0FBEF0CF010EF0DF034
:1019F6001B28D8A401EF0DF003EF0DF00BEF0DF04F
:101A0600000E076E000E086E000E096E000E0A6EBE
:101A1600098E000E0A6E18EF0DF0000E076E000E0E
:101A2600086E000E096E000E0A6E075008100910A7
:101A36000A10D8A421EF0DF023EF0DF03BEF0DF0C7
:101A4600000E036E000E046E000E056E000E066E8E
:101A5600800E05127F0E06121350061203C503F5FB
:101A660004C504F505C505F506C506F57EEF0EF0B9
:101A76001A50D8A441EF0DF043EF0DF04DEF0DF0E5
:101A8600000E036E000E046E000E056E000E066E4E
:101A96007EEF0EF01B501AC50BF50C6A0B5E000E9E
:101AA6000C5A7F0E0B24146E000E0C20156E03C507
:101AB6000FF504C510F505C511F506C512F5000E9E
:101AC600036E000E046E000E056E000E066E000E0E
:101AD600166E000E176E000E186E000E196E000EB2
:101AE6001B6EAEEF0DF01B50D8B47CEF0DF07EEF01
:101AF6000DF095EF0DF0D8900F36103611361236E0
:101B0600D890033604360536063619AE8DEF0DF03D
:101B16008FEF0DF090EF0DF00380D8901636173644
:101B26001836193607500F5C0850105809501158CE
:101B36000A501258D8A0A2EF0DF0A4EF0DF0ADEFA9
:101B46000DF0198C07500F5E0850105A0950115AA3
:101B56000A50125A1B2A190E1B64B4EF0DF0B6EF89
:101B66000DF076EF0DF00F50101011101210D8B4C2
:101B7600BFEF0DF0C1EF0DF0D9EF0DF01680D9EFE4
:101B86000DF0D890033604360536063619AECEEF7C
:101B96000DF0D0EF0DF0D1EF0DF00380D890163692
:101BA6001736183619361406D8A0150605AEDEEF18
:101BB6000DF0E0EF0DF0C4EF0DF0000E1B6E19AE48
:101BC600E7EF0DF0E9EF0DF00DEF0EF0FF0E161436
:101BD6000B6EFF0E17140C6EFF0E18140D6E7F0E93
:101BE60019140E6E0B500C100D100E10D8B4FEEF1B
:101BF6000DF000EF0EF004EF0EF0010E1B6E0DEF70
:101C06000EF003A009EF0EF00BEF0EF00DEF0EF045
:101C160000EF0EF01B50D8B413EF0EF015EF0EF0D8
:101C260039EF0EF0010E0326000E042205220622CD
:101C360006A020EF0EF022EF0EF039EF0EF003C5EE
:101C46000BF504C50CF505C50DF506C50EF50E34E8
:101C56000E320D320C320B320BC503F50CC504F5F2
:101C66000DC505F50EC506F5144A152A15BE44EF31
:101C76000EF0155008E11428D8A044EF0EF046EFF8
:101C86000EF051EF0EF0000E156E1468000E036E86
:101C9600000E046E000E056E000E066E15BE5EEF9B
:101CA6000EF0155006E11404D8B05CEF0EF05EEFAE
:101CB6000EF06CEF0EF0000E156E000E146E000E98
:101CC600036E000E046E000E056E000E066E000E0C
:101CD600136E14C51AF51AA073EF0EF075EF0EF019
:101CE60078EF0EF0058E79EF0EF0059ED8901A303B
:101CF600066E2FEF0DF012000F6E0F50D8B486EF60
:101D06000EF088EF0EF0AAEF0EF00ABE8FEF0EF07F
:101D16008DEF0EF0AAEF0EF007C50BF508C50CF512
:101D260009C50DF50AC50EF50B1E0C1E0D1E0E1E61
:101D36000B2A000E0C220D220E220BC511F50CC526
:101D460012F50DC513F50EC514F5B2EF0EF007C565
:101D560011F508C512F509C513F50AC514F507509E
:101D6600081009100A10D8A4BBEF0EF0BDEF0EF054
:101D7600C7EF0EF0000E076E000E086E000E096E1D
:101D8600000E0A6E58EF0FF0960E106ED1EF0EF0A1
:101D9600102AD8901432133212321132000E111456
:101DA6000B6E000E12140C6E000E13140D6EFE0E4A
:101DB60014140E6E0B500C100D100E10D8A4E6EF76
:101DC6000EF0E8EF0EF0CBEF0EF0F6EF0EF0102A65
:101DD600010E1126000E122213221422D89014325C
:101DE600133212321132000E11140B6E000E121441
:101DF6000C6E000E13140D6EFF0E14140E6E0B50A7
:101E06000C100D100E10D8A40BEF0FF00DEF0FF005
:101E1600EAEF0EF015EF0FF01006D89011361236D5
:101E26001336143613BE1AEF0FF01CEF0FF024EF23
:101E36000FF0020E106022EF0FF024EF0FF00FEFFD
:101E46000FF010B029EF0FF02BEF0FF02CEF0FF083
:101E5600139ED890103210C50BF50C6A0D6A0E6AE7
:101E66000BC50EF50D6A0C6A0B6A0B5011120C505D
:101E760012120D5013120E5014120F50D8B446EF12
:101E86000FF048EF0FF050EF0FF00ABE4FEF0FF0D4
:101E96004DEF0FF050EF0FF0148E11C507F512C578
:101EA60008F513C509F514C50AF51200610040F4DA
:101EB600D9F4610044F4DAF4DEC4F6F4DDC4F7F4D0
:101EC600F86A0800F550250AD8A46CEF0FF06EEFFB
:101ED6000FF0BEEF0FF0610040F4D9F4610044F456
:101EE600DAF4DE2A000EDD22000E3E6E000E3D6E96
:101EF6003DC541F53EC542F53F684068610040F486
:101F0600D9F4610044F4DAF4DEC4F6F4DDC4F7F47F
:101F1600F86A0800F550250AD8A494EF0FF096EF5A
:101F26000FF0AFEF0FF0610040F4D9F4610044F414
:101F3600DAF4DE2A000EDD22000E066E250E056E90
:101F46000EC507F50FC508F5B0EC10F0000E0F6EC4
:101F5600010E0E6EDEEF0FF0610040F4D9F4610061
:101F660044F4DAF4DE2A000EDD22000E0F6E000EB7
:101F76000E6EDEEF0FF0610040F4D9F4610044F418
:101F8600DAF4DEC4F6F4DDC4F7F4F86A0800F550B6
:101F9600056E066A0EC507F50FC508F5B0EC10F01C
:101FA600610040F4D9F4610044F4DAF4DE2A000E4C
:101FB600DD22A9EF0FF01200053406340C6E0C502A
:101FC600D8A4E8EF0FF0EAEF0FF0F4EF0FF0000EF1
:101FD600036E000E046E000E056E000E066E61EFB7
:101FE60010F003C507F504C508F505C509F506C5CE
:101FF6000AF5200E04EF10F0D8900A3209320832A2
:102006000732E82EFFEF0FF007500B6E058EFF0E1E
:102016000316FF0E0416FF0E0516000E0616960E84
:102026000C5E0CBE1BEF10F019EF10F031EF10F044
:102036000C50800A970FD8B023EF10F025EF10F060
:1020460027EF10F0EAEF0FF0D8900632053204328F
:1020560003320C3E27EF10F049EF10F01F0E0C6410
:1020660037EF10F039EF10F041EF10F0EAEF0FF014
:10207600D89003360436053606360C060C50D8A41E
:1020860047EF10F049EF10F03BEF10F00B50D8B4CB
:102096004FEF10F051EF10F059EF10F0061E051E2D
:1020A600041E036C000E04220522062203C503F556
:1020B60004C504F505C505F506C506F51200C3EC0D
:1020C60013F003C507F504C508F5096A0A6A000E88
:1020D6007FEC0EF007C537F508C538F509C539F5A3
:1020E6000AC53AF5000E076E000E086E800E096EE0
:1020F600450E0A6E37C503F538C504F539C505F52D
:102106003AC506F5B2EC0CF003C51CF504C51DF581
:1021160005C51EF506C51FF5000E206E000E216EC4
:10212600800E226E430E236E8BEC0AF01CC537F52B
:102136001DC538F51EC539F51FC53AF537C503F572
:1021460038C504F539C505F53AC506F5DFEC0FF0D7
:102156000350190F0001A06F120007500810D8B4E1
:10216600B7EF10F0B9EF10F0C2EF10F007500810FB
:10217600D8A4C0EF10F0C2EF10F0C7EF10F0055072
:102186000CEC14F0FAEF10F020EE04F00750D9260C
:102196000850DA22DE50DE10D8B4D4EF10F0D6EFB5
:1021A60010F0F1EF10F020EE04F00750D926085099
:1021B600DA2210EE02F00750E1260850E222DE5045
:1021C600E65CE650800A0D6EDE50800A0D58D8B0E7
:1021D600EFEF10F0F1EF10F0FAEF10F020EE02F052
:1021E6000750D9260850DA22DE2A000EDD22120018
:1021F600ABAE00EF11F002EF11F00DEF11F0B6AE3D
:1022060007EF11F009EF11F00DEF11F015EC14F0D6
:1022160043EF11F0A9A812EF11F014EF11F01FEF20
:1022260011F0B4A819EF11F01BEF11F01FEF11F028
:1022360019EC14F043EF11F0AAA024EF11F026EFE9
:1022460011F031EF11F0B5A02BEF11F02DEF11F0D9
:1022560031EF11F0DAEC12F043EF11F0ABA836EFE4
:1022660011F038EF11F043EF11F0B6A83DEF11F081
:102276003FEF11F043EF11F0D8EC13F043EF11F0FC
:10228600110093EC12F0220E036E280E046EFDEC84
:1022960013F04C0E036E280E046E07EC14F0D68E67
:1022A6006EEC13F04504D8A45BEF11F05DEF11F06E
:1022B60063EF11F0000E456E62EC10F055EF11F071
:1022C6004904D8A469EF11F06BEF11F055EF11F046
:1022D600000E496E03011A9FD69E47EC12F0CEEC13
:1022E60013F0120E0301EC6FD68E1A8F55EF11F014
:1022F6000DEF00F0D80E0301D96FDA69280EDB6FF7
:10230600000EDC6F000EDF6F000EE06F000EE56F53
:10231600000EE76F120EEC6F050EEE6F000EEF6FFC
:10232600000EF06F000EF16F000EF26F000EF46FEC
:10233600000EF56F040EF66F000EF76F000EF86FC5
:10234600020EF96F010EFA6F940EF36FB590AA8024
:10235600580E036E280E046E07EC14F01200000EE1
:102366000201A56F000EA66F000EA76F000EA86FE4
:10237600000EA96F000EAA6FA00EAB6F800EAC6F99
:10238600000EAD6F820EAE6F060EAF6F000EB06F11
:10239600000EB16F000EB26F000EB36F000E036E2B
:1023A600000E046EF3EC13F0000E036E000E046EC6
:1023B600EEEC13F0000E036E000E046EF8EC13F054
:1023C600000E476E120016C51AF517C51BF5000E4E
:1023D6003C6E000E3B6E02EF12F014C50EF515C5ED
:1023E6000FF51A0E106E050E116E18C512F519C5E9
:1023F60013F559EC0FF00E503B260F503C226100AE
:1024060068F4F6F461006CF4F7F4F86A0800F55025
:102416000009D8A411EF12F013EF12F0F0EF11F04B
:102426003BC514F53CC515F51200000EBE6E000E38
:10243600BF6E000EC06E2F0EC66E600EC76EC868E9
:1024460004011069F00E086F350E006F000E096F5B
:10245600000E016F000E116F000E026F000E0A6F64
:10246600000E126F370E036FF00E0B6F13693F0EDF
:10247600046FF00E0C6F1469100E0201106F190E26
:102486000D6F010E726F1200100E0301EC6FF381D7
:10249600F3B150EF12F052EF12F04BEF12F0EB5196
:1024A6000A6E096AEA510924436E000E0A20446E38
:1024B60043C503F544C504F5000E066E0E0E056E03
:1024C60033EC13F003C543F504C544F543C503F5E2
:1024D60044C504F5ACEC12F01200000E0301156FB2
:1024E600000E166F040E176FB40E136F510E126F97
:1024F600B698125160004CFC05F5066A05C506F54E
:10250600056A05104C6E06504D6EAB88560E036E6E
:10251600280E046EFDEC13F0340E0301146F120046
:1025260029EC14F080EC13F018EC12F08EEC13F09A
:10253600E2EC13F0AAEC13F07DEC11F0E8EC13F0EA
:1025460070EC12F048EC13F0B2EC11F09CEC13F0C6
:102556001200030114A5B2EF12F0B4EF12F0BDEFB2
:1025660012F014910450136F61000CF412F31481ED
:10257600C2EF12F00450136F61000CF412F3120054
:10258600030114A5C9EF12F0CBEF12F0D4EF12F04D
:1025960014910250136F610004F412F31481D9EF01
:1025A60012F00250136F610004F412F31200B5909A
:1025B60056505710D8B4E2EF12F0E4EF12F0F0EFF5
:1025C60012F002D8F0EF12F00500FA6E5650FD6ECA
:1025D6005750FE6EFF6AFA501200120001EE60F1CB
:1025E600200EEE6AE806FDE101EE37F1130EEE6A03
:1025F600E806FDE10401080E5D6F000E5E6F000E39
:102606005F6F000144EF11F04A504B10D8B40EEF43
:1026160013F010EF13F01CEF13F002D81CEF13F0B9
:102626000500FA6E4A50FD6E4B50FE6EFF6AFA5078
:10263600120012004E504F10D8B424EF13F026EFBC
:1026460013F032EF13F002D832EF13F00500FA6EF2
:102656004E50FD6E4F50FE6EFF6AFA501200120089
:10266600035005026100CCF307F56100D0F308F5CD
:1026760003500602F350082604500502F3500826BC
:1026860007C503F508C504F51200940E03011B6F78
:10269600C10E196F000E186FB69EAB8E460E036EF6
:1026A600280E046E02EC14F0800E03011A6F12005D
:1026B6001E0E206E050E216E000E146E000E156E97
:1026C6001CC516F51DC517F5200E186E050E196EDC
:1026D600E6EC11F01200FC0E00014817290E366ECA
:1026E600960E356E7F0EE82EFED7352EFCD7362E8B
:1026F600FAD700F062EC10F01200000E0001636FD2
:10270600000E646F000E656F000E666F000E676F39
:10271600000E686F1200600E0001AD6F000EAF6F05
:10272600000EB36F080EB16F000EB06F000EAC6FE7
:102736001200020E0001A46F240EA56F000EA66FF4
:10274600000EA76F000EA96FC00EA36F1200A99806
:10275600900E0001706F020E716F010E726F050E02
:10276600736FB498A9881200036EB7A2BDEF13F079
:10277600BFEF13F0B8EF13F061000CF4A3F21200F0
:102786000301EB51066E056AEA510524036E000E3D
:102796000620046E1200BE88010E1C6E150E1D6EFC
:1027A6005BEC13F01DEC14F01200B6984CC501F565
:1027B6004DC502F5C3EC12F007EC13F01200800EC3
:1027C6000001A26F330EA06F1200800E00017F6F12
:1027D6001F0E7D6F120003C552F504C553F5120096
:1027E60003C554F504C555F5120003C550F504C5D7
:1027F60051F5120003C54AF504C54BF5120003C591
:102806004EF504C54FF5120003C556F504C557F538
:102816001200046E0450B7EC13F01200BE9820ECC0
:1028260014F01200B69E1DEC13F01200B498010EBF
:10283600496E120003011481120003011491120063
:10284600010E486E1200010E456E1200D69A120055
:04285600120012005A
:020000040020DA
:10000000FF0FFF0FFF0FFF0FFF0FFF0FFF0FFF0F80
:10001000FF0FFF0FFF0FFF0FFF0FFF0FFF0FFF0F70
:020000040030CA
:0A0000008CFFF7FF9FFFFFFFFFFFDB
:00000001FF
